:060000000A128A11FC2F18
:100F32007530831603138F00080083160317890187
:100F42008801831603138601880183120313860125
:100F5200880108000C308316031399009A011811B6
:100F620083160317871183160313181283120313B0
:100F72009817831603139816831203130C1218166C
:100F82008C1208000A128A119E270A128A110A126A
:100F92008A1199270A128A110A128A11AB270A1298
:100FA2008A110130F000700883120313860783163A
:100FB2000313981CDD2FDE2FE32F83120313060881
:100FC200213E990083128C1EE72FE82FEB2F1A087F
:100FD20088008C120630F2001330F100AD30F000C0
:100FE200F00BF12FF10BF12FF20BF12FF82FD22F83
:0E0FF2000A128A11002883010A128A11C32FE5
:08400000FF3FFF3FFF3FFF3FC0
:04400E00D420FF3F7C
:00000001FF
