:060000000A128A110C280F
:10000800FE00030EF2000A08F3000A128A11502BB0
:100018000A128A110F28F801F90183120313C60185
:10002800C701C801C90183010A128A1193298312E1
:100038000313B5002B30B100C92825303606031943
:10004800262827283128350884003608831380009D
:100058000130AD002D08B507C928B0013828C030D7
:10006800AD002D08B00452280130AA07FF302A0736
:1000780084000A128A1100210A128A11B600AD0002
:10008800AE012E08003A03194A28C9282D08003A5B
:100098000319D928753A03193328C9283108840067
:1000A80083130008B200840A0008B3000230AD00D0
:1000B8002D08B107B601B60A3608AD002D07013E76
:1000C80084000A128A1100210A128A11AE000A124B
:1000D8008A1100210A128A11AF002F083302031D6A
:1000E80077282E08320203187A287B287C2886284D
:1000F8000130AD002D08B60705303606031D8528EA
:10010800862860283608B400C0280A30A4000030C9
:10011800A5003408AD002D07013E84000A128A119B
:1001280000210A128A11F4000A128A1100210A1207
:100138008A11F5003308F7003208F6000A128A110E
:100148001C220A128A11750883120313A700740867
:10015800A6000A128A11A5220A128A118312031311
:100168002408303EB6003508840036088313800022
:100178000130AD002D08B507FF30AD002D08B407DC
:10018800340A031DC828C92889280130AA07FF3066
:100198002A0784000A128A1100210A128A11B6005D
:1001A8003608031DD828D928212835088400831348
:0401B80080010800BA
:1002000001308A000408840A820700340134003473
:100210000A34003464340034E834033410342734AE
:100220000D340A340A344534733463346F346A3419
:100230006134203475346E34613420346434653470
:1002400020346C346134733420347334693467344B
:100250007534693465346E347434653473342034E1
:10026000663475346E34633469346F346E34653497
:1002700073343A340D340A34003449346E346734FC
:100280007234653473346534203465346C3420340E
:10029000763461346C346F347234203464346534B1
:1002A0006C342034413453344334493449343A347F
:1002B000203420340034323420342D34203445347A
:1002C0006E347634693461347234203441345334BA
:1002D000433449344934203461346C34203450344C
:1002E0004F345234543442340D340A3400343134EF
:1002F00020342D3420346C34653465347234203429
:1003000050346F34743465346E34633469346F340C
:100310006D346534743472346F340D340A340034FF
:100320002534753400340A128A1162220A128A11A5
:100330000A128A118B230A128A1135300A128A1185
:100340001C230A128A110B300A128A111C230A126A
:100350008A1172300A128A111C230A128A1156302D
:100360000A128A111C230A128A1101308312031304
:10037000C8000030C900CC2931301A06031DC1293C
:10038000C229C529C801C901CC2932301A06031D6A
:10039000CA29CB29CC29C229480349040319D129E8
:1003A000D229BC2931301A06031DD729D829EF29B3
:1003B0009F140C1FDC29DD29D929DE29DF298312AE
:1003C00003134708B8004608B7000A128A11E12251
:1003D0000A128A11831203138C129A01092A3230ED
:1003E0001A06031DF429F529092A86018C123830D2
:1003F0000A128A111C230A128A11831203138C1EFB
:10040000022A032AFD291A0899001A0886009A016F
:100410008C12023083120313C5000430C400B930BB
:10042000C300C30B112AC40B112AC50B112A182AA9
:100430009D290A128A110C2883120313A201A30119
:10044000740875040319252A262A5D2AA101A10A28
:10045000342A01300310F40DF50DFF3E031D2A2A46
:100460000130A0002008A107F51F372A382A292AC1
:1004700001300310A20DA30DFF3E031D392A75089C
:100480007702031D452A74087602031C482A492A6C
:10049000502A7408F6027508031CF703F7022214A9
:1004A00001300310F50CF40CFF3E031D512A0130FE
:1004B000A102031D5C2A5D2A382A2308F5002208C0
:1004C000F4000800831603178901831603138601BD
:1004D0008801831203138601880185017030831619
:1004E00003138F040F1481128111073081043D30F2
:1004F0008312031381000B118B160C138316031345
:100500000C178B17013083160317880001308316F0
:1005100003138500831203131F083F3980389F009F
:10052000C3309F050630F5003030F400F40B962AF6
:10053000F50B962A0000831603139F131F129F12B8
:10054000831203131F140C130800831203132408CF
:1005500025040319AC2AAD2ADC2AA901A90ABB2A61
:1005600001300310A40DA50DFF3E031DB12A01307B
:10057000A8002808A907A51FBE2ABF2AB02A250857
:100580002702031DC52A24082602031CC82AC92ADB
:10059000CF2A2408A6022508031CA703A7020130BE
:1005A0000310A50CA40CFF3E031DD02A0130A902A4
:1005B000031DDB2ADC2ABF2A2708A5002608A40081
:1005C00008008B3083120313AA003808AC003708E8
:1005D000AB003B300A128A111B200A128A118312C7
:1005E0000313C101C2018312031341083B3E84007F
:1005F0008313000899000B3083120313BA00613093
:10060000B900B90B012BBA0B012B062B0130831259
:100610000313C1070318C20A0030C2074208803A18
:10062000FF0080307F02031D172B06304102031CA0
:100630001A2B1B2BF32A080083120313A600A40114
:10064000A5013D2B2408260784000A128A110021E7
:100650000A128A1199000D3083120313A300FB3094
:10066000A200A20B312BA30B312B013083120313F9
:10067000A4070318A50A0030A50726080A128A1144
:100680006E230A128A117508831203132502031DB3
:100690004B2B74082402031C4E2B4F2B222B0800DB
:1006A0000B1D532B542B592B3D3083120313810008
:1006B0000B11831203130C1F5E2B5F2B672B1E087D
:1006C000F000F1017008C6007108C7000C13730830
:1006D0008A00720E8300FE0E7E0E09008312031341
:1006E000A0002008A100782B0130F6007608A107B1
:1006F000210884000A128A1100210A128A11003A84
:10070000031D832B842B742B20082102F400F50198
:10071000F41BF50308000C308316031399009A01AB
:1007200018118316031787118316031318128312E7
:1007300003139817831603139816831203130C12CE
:0607400018168C120800DF
:08400000FF3FFF3FFF3FFF3FC0
:04400E00D420FF3F7C
:00000001FF
